{
  "contractName": "TaskContract",
  "abi": [
    {
      "anonymous": false,
      "inputs": [
        {
          "indexed": false,
          "internalType": "address",
          "name": "recipient",
          "type": "address"
        },
        {
          "indexed": false,
          "internalType": "uint256",
          "name": "taskId",
          "type": "uint256"
        }
      ],
      "name": "AddTask",
      "type": "event"
    },
    {
      "anonymous": false,
      "inputs": [
        {
          "indexed": false,
          "internalType": "uint256",
          "name": "taskId",
          "type": "uint256"
        },
        {
          "indexed": false,
          "internalType": "bool",
          "name": "isDeleted",
          "type": "bool"
        }
      ],
      "name": "DeleteTask",
      "type": "event"
    },
    {
      "inputs": [
        {
          "internalType": "string",
          "name": "taskText",
          "type": "string"
        },
        {
          "internalType": "bool",
          "name": "isDeleted",
          "type": "bool"
        }
      ],
      "name": "addTask",
      "outputs": [],
      "stateMutability": "nonpayable",
      "type": "function"
    },
    {
      "inputs": [],
      "name": "getMyTasks",
      "outputs": [
        {
          "components": [
            {
              "internalType": "uint256",
              "name": "id",
              "type": "uint256"
            },
            {
              "internalType": "string",
              "name": "taskText",
              "type": "string"
            },
            {
              "internalType": "bool",
              "name": "isDeleted",
              "type": "bool"
            }
          ],
          "internalType": "struct TaskContract.Task[]",
          "name": "",
          "type": "tuple[]"
        }
      ],
      "stateMutability": "view",
      "type": "function",
      "constant": true
    },
    {
      "inputs": [
        {
          "internalType": "uint256",
          "name": "taskId",
          "type": "uint256"
        },
        {
          "internalType": "bool",
          "name": "isDeleted",
          "type": "bool"
        }
      ],
      "name": "deleteTask",
      "outputs": [],
      "stateMutability": "nonpayable",
      "type": "function"
    }
  ],
  "bytecode": "0x608060405234801561001057600080fd5b50610e62806100206000396000f3fe608060405234801561001057600080fd5b50600436106100415760003560e01c806320df4581146100465780636e13f81814610062578063aaba290714610080575b600080fd5b610060600480360381019061005b919061074b565b61009c565b005b61006a6101bf565b6040516100779190610969565b60405180910390f35b61009a600480360381019061009591906109b7565b6104b5565b005b60008080549050905060006040518060600160405280838152602001858152602001841515815250908060018154018082558091505060019003906000526020600020906003020160009091909190915060008201518160000155602082015181600101908161010c9190610c03565b5060408201518160020160006101000a81548160ff0219169083151502179055505050336001600083815260200190815260200160002060006101000a81548173ffffffffffffffffffffffffffffffffffffffff021916908373ffffffffffffffffffffffffffffffffffffffff1602179055507f1f54e1ba1832d428fbd7e7792beaf62b1fc5a382c207ffd614209c1413e94fda33826040516101b2929190610d25565b60405180910390a1505050565b60606000808054905067ffffffffffffffff8111156101e1576101e06105e8565b5b60405190808252806020026020018201604052801561021a57816020015b610207610596565b8152602001906001900390816101ff5790505b5090506000805b6000805490508110156103fb573373ffffffffffffffffffffffffffffffffffffffff166001600083815260200190815260200160002060009054906101000a900473ffffffffffffffffffffffffffffffffffffffff1673ffffffffffffffffffffffffffffffffffffffff161480156102d2575060001515600082815481106102af576102ae610d4e565b5b906000526020600020906003020160020160009054906101000a900460ff161515145b156103e857600081815481106102eb576102ea610d4e565b5b90600052602060002090600302016040518060600160405290816000820154815260200160018201805461031e90610a26565b80601f016020809104026020016040519081016040528092919081815260200182805461034a90610a26565b80156103975780601f1061036c57610100808354040283529160200191610397565b820191906000526020600020905b81548152906001019060200180831161037a57829003601f168201915b505050505081526020016002820160009054906101000a900460ff1615151515815250508383815181106103ce576103cd610d4e565b5b602002602001018190525081806103e490610dac565b9250505b80806103f390610dac565b915050610221565b5060008167ffffffffffffffff811115610418576104176105e8565b5b60405190808252806020026020018201604052801561045157816020015b61043e610596565b8152602001906001900390816104365790505b50905060005b828110156104ab5783818151811061047257610471610d4e565b5b602002602001015182828151811061048d5761048c610d4e565b5b602002602001018190525080806104a390610dac565b915050610457565b5080935050505090565b3373ffffffffffffffffffffffffffffffffffffffff166001600084815260200190815260200160002060009054906101000a900473ffffffffffffffffffffffffffffffffffffffff1673ffffffffffffffffffffffffffffffffffffffff16036105925780600083815481106105305761052f610d4e565b5b906000526020600020906003020160020160006101000a81548160ff0219169083151502179055507ff88a35c3d2016c409a46570b994a17b408dbc83c14a03f521512d50b85386d068282604051610589929190610e03565b60405180910390a15b5050565b604051806060016040528060008152602001606081526020016000151581525090565b6000604051905090565b600080fd5b600080fd5b600080fd5b600080fd5b6000601f19601f8301169050919050565b7f4e487b7100000000000000000000000000000000000000000000000000000000600052604160045260246000fd5b610620826105d7565b810181811067ffffffffffffffff8211171561063f5761063e6105e8565b5b80604052505050565b60006106526105b9565b905061065e8282610617565b919050565b600067ffffffffffffffff82111561067e5761067d6105e8565b5b610687826105d7565b9050602081019050919050565b82818337600083830152505050565b60006106b66106b184610663565b610648565b9050828152602081018484840111156106d2576106d16105d2565b5b6106dd848285610694565b509392505050565b600082601f8301126106fa576106f96105cd565b5b813561070a8482602086016106a3565b91505092915050565b60008115159050919050565b61072881610713565b811461073357600080fd5b50565b6000813590506107458161071f565b92915050565b60008060408385031215610762576107616105c3565b5b600083013567ffffffffffffffff8111156107805761077f6105c8565b5b61078c858286016106e5565b925050602061079d85828601610736565b9150509250929050565b600081519050919050565b600082825260208201905092915050565b6000819050602082019050919050565b6000819050919050565b6107e6816107d3565b82525050565b600081519050919050565b600082825260208201905092915050565b60005b8381101561082657808201518184015260208101905061080b565b83811115610835576000848401525b50505050565b6000610846826107ec565b61085081856107f7565b9350610860818560208601610808565b610869816105d7565b840191505092915050565b61087d81610713565b82525050565b600060608301600083015161089b60008601826107dd565b50602083015184820360208601526108b3828261083b565b91505060408301516108c86040860182610874565b508091505092915050565b60006108df8383610883565b905092915050565b6000602082019050919050565b60006108ff826107a7565b61090981856107b2565b93508360208202850161091b856107c3565b8060005b85811015610957578484038952815161093885826108d3565b9450610943836108e7565b925060208a0199505060018101905061091f565b50829750879550505050505092915050565b6000602082019050818103600083015261098381846108f4565b905092915050565b610994816107d3565b811461099f57600080fd5b50565b6000813590506109b18161098b565b92915050565b600080604083850312156109ce576109cd6105c3565b5b60006109dc858286016109a2565b92505060206109ed85828601610736565b9150509250929050565b7f4e487b7100000000000000000000000000000000000000000000000000000000600052602260045260246000fd5b60006002820490506001821680610a3e57607f821691505b602082108103610a5157610a506109f7565b5b50919050565b60008190508160005260206000209050919050565b60006020601f8301049050919050565b600082821b905092915050565b600060088302610ab97fffffffffffffffffffffffffffffffffffffffffffffffffffffffffffffffff82610a7c565b610ac38683610a7c565b95508019841693508086168417925050509392505050565b6000819050919050565b6000610b00610afb610af6846107d3565b610adb565b6107d3565b9050919050565b6000819050919050565b610b1a83610ae5565b610b2e610b2682610b07565b848454610a89565b825550505050565b600090565b610b43610b36565b610b4e818484610b11565b505050565b5b81811015610b7257610b67600082610b3b565b600181019050610b54565b5050565b601f821115610bb757610b8881610a57565b610b9184610a6c565b81016020851015610ba0578190505b610bb4610bac85610a6c565b830182610b53565b50505b505050565b600082821c905092915050565b6000610bda60001984600802610bbc565b1980831691505092915050565b6000610bf38383610bc9565b9150826002028217905092915050565b610c0c826107ec565b67ffffffffffffffff811115610c2557610c246105e8565b5b610c2f8254610a26565b610c3a828285610b76565b600060209050601f831160018114610c6d5760008415610c5b578287015190505b610c658582610be7565b865550610ccd565b601f198416610c7b86610a57565b60005b82811015610ca357848901518255600182019150602085019450602081019050610c7e565b86831015610cc05784890151610cbc601f891682610bc9565b8355505b6001600288020188555050505b505050505050565b600073ffffffffffffffffffffffffffffffffffffffff82169050919050565b6000610d0082610cd5565b9050919050565b610d1081610cf5565b82525050565b610d1f816107d3565b82525050565b6000604082019050610d3a6000830185610d07565b610d476020830184610d16565b9392505050565b7f4e487b7100000000000000000000000000000000000000000000000000000000600052603260045260246000fd5b7f4e487b7100000000000000000000000000000000000000000000000000000000600052601160045260246000fd5b6000610db7826107d3565b91507fffffffffffffffffffffffffffffffffffffffffffffffffffffffffffffffff8203610de957610de8610d7d565b5b600182019050919050565b610dfd81610713565b82525050565b6000604082019050610e186000830185610d16565b610e256020830184610df4565b939250505056fea26469706673582212207761568bce4c89477f12946758a566719bf62b7590300c5a125183ddffd02d4264736f6c634300080f0033",
  "immutableReferences": {},
  "source": "// SPDX-License-Identifier: MIT\npragma solidity 0.8.15;\n\n // task:{id:0, taskText:\"\", isDeleted:false},\n //DEPLOYED Contract Address\n //ABI\ncontract TaskContract {\n  event AddTask(address recipient, uint taskId);\n  event DeleteTask(uint taskId, bool isDeleted);\n  struct Task {\n    uint id;\n    string taskText;\n    bool isDeleted;\n  }\n \n  Task[] private tasks;\n  mapping(uint256 => address) taskToOwner;\n\n  function addTask(string memory taskText, bool isDeleted)\n  external{\n    uint taskId =tasks.length;\n    tasks.push(Task(taskId, taskText, isDeleted));\n    taskToOwner[taskId] = msg.sender;\n    emit AddTask(msg.sender, taskId);\n  }\n  //get tasks that are mine and not deleted\n  function getMyTasks() external view returns (Task[] memory){\n    Task[] memory temporary = new Task[](tasks.length);\n    uint counter = 0;\n  // temporary [{taskText: 'hell', isDeleted: false}, empty]\n    for (uint i =0; i<tasks.length; i++){\n      if(taskToOwner[i] == msg.sender && tasks[i].isDeleted == false){\n        temporary[counter] = tasks[i];\n        counter++;\n      }\n    }\n    Task[] memory result = new Task[](counter);\n    for(uint i = 0; i< counter ;i++){\n      result[i]= temporary[i];\n    }\n    return result;\n  }\n  function deleteTask(uint taskId, bool isDeleted)external{\n    if(taskToOwner[taskId] == msg.sender){\n      tasks[taskId].isDeleted = isDeleted;\n      emit DeleteTask(taskId, isDeleted);\n    }\n  }\n\n}\n\n\n",
  "sourcePath": "/Users/jinpingwang/Desktop/jin_todo-solidity/backend/contracts/TaskContract.sol",
  "compiler": {
    "name": "solc",
    "version": "0.8.15+commit.e14f2714.Emscripten.clang"
  },
  "schemaVersion": "3.4.8",
  "updatedAt": "2022-08-03T05:34:08.809Z",
  "networkType": "ethereum",
  "devdoc": {
    "kind": "dev",
    "methods": {},
    "version": 1
  },
  "userdoc": {
    "kind": "user",
    "methods": {},
    "version": 1
  }
}